:100000000C9462000C948A000C948A000C948A0070
:100010000C948A000C948A000C948A000C948A0038
:100020000C948A000C948A000C948A000C940506A7
:100030000C948A000C948A000C948A000C948A0018
:100040000C9463050C948A000C94D3050C94AD05B4
:100050000C948A000C948A000C948A000C948A00F8
:100060000C948A000C948A000000000024002700F1
:100070002A0000000000250028002B0000000000DE
:1000800023002600290004040404040404040202DA
:100090000202020203030303030301020408102007
:1000A0004080010204081020010204081020000012
:1000B0000008000201000003040700000000000027
:1000C0000000C10611241FBECFEFD8E0DEBFCDBFB8
:1000D00012E0A0E0B1E0E8E0F9E102C005900D9285
:1000E000AE34B107D9F723E0AEE4B2E001C01D920F
:1000F000A83AB207E1F710E0C2E6D0E004C02197C9
:10010000FE010E947C0CC136D107C9F70E949607F8
:100110000C94820C0C940000CF92DF92EF92FF922D
:10012000DC01A03282E0B807D4F5A53BB10514F09C
:10013000A4EBB0E04091A60328E830E0241B31098D
:1001400047FD3395220F331F220F331F6901330FF1
:10015000EE08FF084091A70328E532E0241B31098F
:1001600047FD3395220F331F220F331F032E000C40
:10017000440B550B2C193D094E095F09B7FF02C00E
:10018000B0E0A0E00E94370C24EB30E040E050E00B
:100190000E940D0CC20ED31EE41EF51ED601E09186
:1001A000A503EC3080F52091A60388E890E0821B3F
:1001B000910927FD9395880F991F880F991FA817FC
:1001C000B90784F02091A70388E592E0821B91098A
:1001D00027FD9395880F991F880F991FA817B907B6
:1001E0000CF4CD010297880F991F4FB7F8942E2F6A
:1001F00030E0F901EE0FFF1FE20FF31FE750FD4F54
:10020000928381834FBFFF90EF90DF90CF9008954E
:1002100096E0899FD0011124A25EBC4F90967C93FA
:100220006E935F9791E091969C939197E0918B03E9
:10023000F0918C0390918A03992339F0309751F013
:10024000811108C080913A030994309719F05C96A7
:100250008C91FACF0895CF92DF92EF92FF920F9395
:100260001F9396E0899FF0011124E25EFC4F11A2DA
:10027000278D30A12130310551F178F02230310540
:1002800009F451C02330310509F452C01F910F9178
:10029000FF90EF90DF90CF9008956623B9F361E06F
:1002A00070E00E9408012FB7F89480915802909155
:1002B0005902A0915A02B0915B022FBF809376033E
:1002C00090937703A0937803B0937903DFCF9FB720
:1002D000F894C0905802D0905902E0905A02F090E1
:1002E0005B029FBF00917603109177032091780302
:1002F00030917903C01AD10AE20AF30A0091880307
:100300001091890330E020E00C151D052E053F05F6
:1003100050F462E070E01F910F91FF90EF90DF903A
:10032000CF900C9408016111B1CF63E070E0F3CF7E
:1003300070E060E0F0CFFC01538D448D252F30E05C
:10034000842F90E0821B930B541710F0CF960895E2
:1003500001970895FC01918D828D981761F0A28D0F
:10036000AE0FBF2FB11D5D968C91928D9F5F9F73D5
:10037000928F90E008958FEF9FEF0895FC01918D8B
:10038000828D981731F0828DE80FF11D858D90E0F8
:1003900008958FEF9FEF0895FC01918D228D892F95
:1003A00090E0805C9F4F821B91098F73992708957D
:1003B000FC01A48DA80FB92FB11DA35ABF4F2C91DA
:1003C000848D90E001968F739927848FA689B789D1
:1003D0002C93A089B1898C91837080648C93938DC8
:1003E000848D981306C00288F389E02D80818F7D6B
:1003F00080830895EF92FF920F931F93CF93DF9323
:10040000EC0181E0888F9B8D8C8D98131AC0E88950
:10041000F989808185FF15C09FB7F894EE89FF891F
:100420006083E889F98980818370806480839FBFBD
:1004300081E090E0DF91CF911F910F91FF90EF90BD
:100440000895F62E0B8D10E00F5F1F4F0F731127CD
:10045000E02E8C8D8E110CC00FB607FCFACFE88908
:10046000F989808185FFF5CFCE010E94D801F1CFB7
:10047000EB8DEC0FFD2FF11DE35AFF4FF0829FB77C
:10048000F8940B8FEA89FB8980818062CFCFCF936C
:10049000DF93EC01888D8823B9F0AA89BB89E889AC
:1004A000F9898C9185FD03C0808186FD0DC00FB652
:1004B00007FCF7CF8C9185FFF2CF808185FFEDCFD0
:1004C000CE010E94D801E9CFDF91CF9108958CE54C
:1004D00092E00E94CC0121E0892B09F420E0822FD8
:1004E000089580E090E0892B29F00E946702811135
:1004F0000C9400000895833081F028F4813099F045
:100500008230A9F008958730A9F08830C9F084308E
:10051000B1F4809180008F7D03C0809180008F773F
:1005200080938000089584B58F7784BD089584B545
:100530008F7DFBCF8091B0008F778093B0000895BE
:100540008091B0008F7DF9CFCF93DF93282F30E0DB
:10055000F901E255FF4F8491F901E656FF4FD4911E
:10056000F901EA57FF4FC491CC23A1F081110E94F9
:100570007B02EC2FF0E0EE0FFF1FE458FF4FA59138
:10058000B491EC91ED2381E090E009F480E0DF91FB
:10059000CF91089580E090E0FACF1F93CF93DF933F
:1005A000282F30E0F901E255FF4F8491F901E6561A
:1005B000FF4FD491F901EA57FF4FC491CC23A9F022
:1005C000162F81110E947B02EC2FF0E0EE0FFF1F2F
:1005D000EE58FF4FA591B4918FB7F894EC9111119B
:1005E00008C0D095DE23DC938FBFDF91CF911F91A0
:1005F0000895DE2BF8CFCF93DF9390E0FC01E65611
:10060000FF4F24918A579F4FFC0184918823C9F0A2
:1006100090E0880F991FFC01E859FF4FA591B49114
:10062000FC01EE58FF4FC591D49161110DC09FB7E9
:10063000F8948C91209582238C9388812823288399
:100640009FBFDF91CF910895623051F49FB7F89426
:100650003C91822F809583238C93E8812E2BEFCFC2
:100660008FB7F894EC912E2B2C938FBFEACF3FB726
:10067000F8948091540290915502A0915602B09145
:10068000570226B5A89B05C02F3F19F00196A11D62
:10069000B11D3FBFBA2FA92F982F8827BC01CD01CC
:1006A000620F711D811D911D42E0660F771F881F2B
:1006B000991F4A95D1F708958F929F92AF92BF925A
:1006C000CF92DF92EF92FF924B015C010E943703C1
:1006D0006B017C010E9437036C197D098E099F090B
:1006E000683E734081059105A8F321E0821A9108C4
:1006F000A108B10888EEC80E83E0D81EE11CF11CE9
:1007000081149104A104B10429F7FF90EF90DF90C8
:10071000CF90BF90AF909F908F900895862F642FB9
:100720000C94FB02862F642F0C94CD02862F0C9420
:10073000A402AF92BF92CF92DF92EF92FF920F93FB
:100740001F93CF93DF936C017B018B01040F151F67
:10075000EB015E01AE18BF08C017D10759F06991CF
:10076000D601ED91FC910190F081E02DC601099533
:10077000892B79F7C501DF91CF911F910F91FF90E0
:10078000EF90DF90CF90BF90AF900895089590E0E4
:1007900080E00895FB0101900020E9F73197AF0157
:1007A000461B570BDC01ED91FC910280F381E02D9B
:1007B0000994BC018DE893E00C94CA030F931F9336
:1007C000CF93DF93EC010E94CA038C016BE371E0CD
:1007D000CE010E94CA03800F911FDF91CF911F911C
:1007E0000F910895CF93DF93EC0160E08E810E941A
:1007F000CD0261E08E810E94CD0260E08E810E9478
:10080000CD028BE891E00197F1F7DF91CF91089548
:10081000CF92DF92EF92FF920F931F93CF93DF93CC
:100820006C017C0187E0E80EF11CD0E0C0E0062FEF
:1008300010E0B8010C2E02C0759567950A94E2F796
:100840006170F70181917F010E94CD022196C43031
:10085000D10579F7C601DF91CF911F910F91FF90DC
:10086000EF90DF90CF900C94F203CF92DF92EF9253
:10087000FF920F931F93CF93DF93EC01F62E642F1B
:100880008C810E94CD028D818F3F19F060E00E9423
:10089000CD020F2D10E08F8584FF25C06E0187E00B
:1008A000C80ED11CF12CE12CB8010E2C02C075959C
:1008B00067950A94E2F76170F60181916F010E94D9
:1008C000CD02FFEFEF1AFF0A88E0E816F10461F7A6
:1008D000CE01DF91CF911F910F91FF90EF90DF90AC
:1008E000CF900C94F203B80184E0759567958A95D2
:1008F000E1F7CE010E9408046F2DCE01DF91CF9168
:100900001F910F91FF90EF90DF90CF900C9408040F
:1009100040E0682F8DE893E00C94350481E00E945C
:1009200088048BE39FE10197F1F70895CF93DF935C
:10093000823029F490919C03986090939C0380935B
:10094000A0031092A10380E48093A20380E180932E
:10095000A30380E58093A40361E0809191030E944A
:10096000FB02809192038F3F19F061E00E94FB022D
:1009700061E0809193030E94FB02CDE8D3E09E01E9
:100980002D58334080919C0384FD0BC084E090E09F
:1009900021962817390744F461E08E810E94FB02FA
:1009A000EECF88E090E0F4CF8BE39DE00197F1F784
:1009B00060E0809191030E94CD0260E080919303FA
:1009C0000E94CD02809192038F3F19F060E00E9457
:1009D000CD0280919C0384FD34C063E08DE893E0F8
:1009E0000E940804CBE4D6E4CE010197F1F763E05E
:1009F0008DE893E00E9408042197F1F763E08DE809
:100A000093E00E94080483E592E00197F1F762E029
:100A10008DE893E00E94080480919C0380620E940C
:100A2000880484E080939D038CE00E9488040E94E7
:100A30008E0482E080939E0386E0DF91CF910C9438
:100A4000880480620E9488048BE496E40197F1F7A1
:100A500080919C0380620E94880483E592E0019764
:100A6000F1F780919C0380620E948804D5CF6430A6
:100A700008F063E09091A003691710F06FEF690F21
:100A8000E62FF0E0E357FC4F9489890F80680C94BF
:100A9000880460E080E00E9437056EE371E08DE835
:100AA00093E00E94DE0361E081E00E9437056FE47D
:100AB00071E08DE893E00C94DE0341E00E94350480
:100AC00081E090E008951F920F920FB60F921124CB
:100AD0002F933F938F939F93AF93BF93809158022F
:100AE00090915902A0915A02B0915B023091530249
:100AF00023E0230F2D3758F50196A11DB11D20933A
:100B000053028093580290935902A0935A02B093D3
:100B10005B028091540290915502A0915602B091CF
:100B200057020196A11DB11D809354029093550266
:100B3000A0935602B0935702BF91AF919F918F91AE
:100B40003F912F910F900FBE0F901F90189526E8A0
:100B5000230F0296A11DB11DD2CF1F920F920FB687
:100B60000F9211242F933F934F935F936F937F9333
:100B70008F939F93AF93BF93EF93FF938CE592E096
:100B80000E94D801FF91EF91BF91AF919F918F91FA
:100B90007F916F915F914F913F912F910F900FBE79
:100BA0000F901F9018951F920F920FB60F9211245D
:100BB0002F938F939F93EF93FF93E0916C02F091AB
:100BC0006D028081E0917202F091730282FD1BC080
:100BD0009081809175028F5F8F73209176028217CA
:100BE00041F0E0917502F0E0E45AFD4F958F80935B
:100BF0007502FF91EF919F918F912F910F900FBEF2
:100C00000F901F9018958081F4CF1F920F920FB60E
:100C10000F9211242F933F934F935F936F937F9382
:100C20008F939F93AF93BF93CF93DF93EF93FF93F4
:100C300080914E02C0911D03D0E087FF24C0109226
:100C400085001092840080914E028F5F80934E0247
:100C500080914E02082E000C990B8C179D0724F4EE
:100C600080914E028C30C4F1809184009091850077
:100C7000049680349C4908F47AC080918400909155
:100C80008500049676C080914E02082E000C990BC8
:100C90008C179D07C4F6E0914E028E2FEE0F990B34
:100CA000FC01EE0FFF1FE80FF91FE750FD4F808199
:100CB00086FFC9CFE0914E028E2FEE0F990BFC01FB
:100CC000EE0FFF1FE80FF91FE750FD4F808160E036
:100CD0008F730E94CD02B7CF2091840030918500A0
:100CE000E0914E028E2FEE0F990BFC01EE0FFF1FCD
:100CF000E80FF91FE750FD4F81819281820F931F0A
:100D00009093890080938800E0914E028E2FEE0F21
:100D1000990BFC01EE0FFF1FE80FF91FE750FD4F85
:100D2000808186FF11C0E0914E028E2FEE0F990B4D
:100D3000FC01EE0FFF1FE80FF91FE750FD4F808108
:100D400061E08F730E94CD02FF91EF91DF91CF910F
:100D5000BF91AF919F918F917F916F915F914F91D3
:100D60003F912F910F900FBE0F901F90189580E428
:100D70009CE990938900809388008FEF80934E02C6
:100D8000E3CF10925F0210925E0288EE93E0A0E043
:100D9000B0E08093600290936102A0936202B093EE
:100DA000630287E191E090935D0280935C0285ECA1
:100DB00090E0909369028093680284EC90E09093B5
:100DC0006B0280936A0280EC90E090936D028093B6
:100DD0006C0281EC90E090936F0280936E0282EC43
:100DE00090E0909371028093700286EC90E0909373
:100DF0007302809372021092750210927602109222
:100E000077021092780280911D038C3008F08AC01E
:100E100091E0980F90931D038093A50390E0FC014F
:100E2000EE0FFF1FE80FF91FE750FD4F88EB9BE027
:100E3000928381831092900310928F0383E391E059
:100E400090938E0380938D0382E1809391038FEFC3
:100E50008093920383E18093930381E180939403D1
:100E600080E1809395038FE0809396038EE08093DA
:100E70009703109298031092990310929A0310927C
:100E80009B0310929C0381E00E9496041092200321
:100E900010922403109223031092250389E291E01B
:100EA00090931F0380931E03EAE3F3E01082148201
:100EB00013821582369683E0E637F807B9F783E0A8
:100EC00091E0909381038093800380E091E0909380
:100ED00083038093820384E08093840383E0809380
:100EE000850387E091E090937F0380937E038AE0FF
:100EF00090E0909387038093860384EF91E0909332
:100F000089038093880310928C0310928B031092B4
:100F10007A0310927B0310927C0310927D0310924F
:100F20008A0308958FEF8093A50384CF789484B5C6
:100F3000826084BD84B5816084BD85B5826085BDD5
:100F400085B5816085BD80916E00816080936E0063
:100F50001092810080918100826080938100809155
:100F60008100816080938100809180008160809306
:100F700080008091B10084608093B1008091B000C6
:100F800081608093B00080917A00846080937A00C1
:100F900080917A00826080937A0080917A008160EB
:100FA00080937A0080917A00806880937A00109212
:100FB000C10082E00E94960460E080E00E94370554
:100FC0008EE591E00E94D90361E080E00E94370540
:100FD0008CE691E00E94D90368EB7BE080E090E032
:100FE0000E945C0360E080E00E9437058CE791E09E
:100FF0000E94D90361E080E00E9437058DE891E00E
:101000000E94D90368EB7BE080E090E00E945C03E3
:101010000E948E040E9449058091A5038C3008F03F
:1010200051C061E089E00E94FB028091A503282F56
:1010300030E0F901EE0FFF1FE20FF31FE750FD4F05
:101040009081907C996090831092A6031092A703E0
:101050002CE0622F0E94700C829FB001112430E0BE
:1010600020E0AB01420F531FFA01EE0FFF1FE40F08
:10107000F51FE750FD4F908196FD16C02F5F3F4F43
:101080002C30310571F781110FC01092800082E081
:10109000809381001092850010928400B19A809113
:1010A0006F00826080936F00E091A5038E2F90E027
:1010B000FC01EE0FFF1FE80FF91FE750FD4F808185
:1010C0008064808382E00E949604812C912C5401DC
:1010D000839440E0442E40E0542E54EB652E712C56
:1010E0008091510290915202892B11F40E9449057E
:1010F00051E050938A038FB7F89440915802509171
:10110000590260915A0270915B028FBF80917A03FD
:1011100090917B03A0917C03B0917D03481B590BF8
:101120006A0B7B0B8091860390918703B0E0A0E06F
:1011300084179507A607B70708F017C1C0E080918C
:101140008403C81760F4E0918003F0918103EC0FF1
:10115000F11D62E080810E94FB02CF5FF0CF312C55
:1011600080918503381608F05FC0032D10E0E091F0
:101170008203F0918303E00FF11F61E080810E9400
:10118000FB02E0918203F0918303E00FF11F60E026
:1011900080810E94CD02D501C401032C04C0880FB8
:1011A000991FAA1FBB1F0A94D2F76C017C01E0941F
:1011B000F094212C809184032816F8F4C22DD0E0FD
:1011C000E0918003F0918103EC0FFD1F80810E946C
:1011D000A4022496CC0FDD1FC25EDC4F892B41F4A4
:1011E000888199818C299D29998388832394E2CFD2
:1011F000888199818E219F21F7CFE0918203F09120
:101200008303E00FF11F61E080810E94CD02809195
:10121000820390918303080F191F60E0F801808119
:101220000E94FB0233949CCFCEE1D3E0FE01878D78
:1012300090A1892B31F4148E8FEF9FEF968F858FBD
:1012400011A2369693E0EA35F90789F7F12C8091DF
:101250008403F81608F051C0E12C0F2D10E0000FA8
:10126000111F0A5D1C4F20918503E21608F043C050
:10127000F801608171810E2C02C0769567950A9401
:10128000E2F7F29E900111242E0D311DEEE1F3E004
:1012900080E0458D568D2417350709F4BCC28F5F59
:1012A00036968A30B1F760FF24C0EEE1F3E090E0BB
:1012B00080E0448D411118C0E0917E03F0917F03DE
:1012C000E20FF31F408156E0589FF001599FF00D47
:1012D0001124E25EFC4F448F368F258F10A2178EAB
:1012E00061E00E942B0105C0019636968A30910577
:1012F00001F7E394B8CFF394AACF80E099A19111BC
:10130000892F269693E0CA35D907C1F79FB7F8947D
:10131000409158025091590260915A0270915B02BB
:101320009FBF40937A0350937B0360937C03709339
:101330007D038823D1F080913F038823B1F0809111
:101340003D0390913E03019781F410913A031111EE
:101350000FC04114510409F4C3CE0E9467028823D0
:1013600009F4BECE0E940000BBCE10928A03F1CFDA
:101370000E948E0460E080E00E9437058AE991E0D7
:101380000E94D90361E087E00E9437058AE791E077
:101390000E94D90361E087E00E943705D0E0C0E0F9
:1013A00080915102909152028C179D0734F08DE488
:1013B00091E00E94D9032196F3CFFC01EC55FE4F3A
:1013C00020812113DDC10196909352028093510236
:1013D000049709F0BECF64E873E080E090E00E94DB
:1013E0005C0360E080E00E9437056AE771E08DE809
:1013F00093E00E94DE0360E081E00E94370589EA05
:1014000091E00E94D90361E084E00E94370568EB17
:1014100071E08DE893E00E94DE0361E08FE00E94BE
:1014200037056AE771E08DE893E00E94DE0361E032
:1014300080E10E9437056AE771E08DE893E00E9441
:10144000DE0361E08EE00E9437056AE771E08DE817
:1014500093E00E94DE0361E08DE00E9437056AE7B9
:1014600071E08DE893E00E94DE037092500260927A
:101470004F02C0914F02D0915002D7FD0FC0CE0154
:101480000E948C0065E070E080E090E00E945C03C8
:101490002597D0935002C0934F02EBCF60ED77E0D9
:1014A00080E090E00E945C0368EE73E080E090E0F2
:1014B0000E945C0360EB74E080E090E00E945C03BB
:1014C0000E948E046FE082E00E9437056AE771E0B7
:1014D0008DE893E00E94DE036EE082E00E94370513
:1014E0006AE771E08DE893E00E94DE0360E082E04D
:1014F0000E94370568EC70E080E090E00E945C0399
:1015000062EC71E08DE893E00E94DE0361E084E02C
:101510000E94370583ED91E00E94D90368EC70E0EA
:1015200080E090E00E945C030E948E0460E082E014
:101530000E94370565ED71E08DE893E00E94DE03BF
:1015400068EE73E080E090E00E945C0360E082E07F
:101550000E94370565ED71E08DE893E00E94DE039F
:1015600061E084E00E94370584EE91E00E94D90397
:1015700064E670E080E090E00E945C030E948E04CC
:1015800060E082E00E94370565ED71E08DE893E050
:101590000E94DE0368EE73E080E090E00E945C034E
:1015A00060E082E00E94370565ED71E08DE893E030
:1015B0000E94DE0361E084E00E94370587EA91E043
:1015C0000E94D90364E670E080E090E00E945C0332
:1015D0000E948E0460E082E00E94370565ED71E0B4
:1015E0008DE893E00E94DE0368EE73E080E090E017
:1015F0000E945C0360E082E00E94370565ED71E0C7
:101600008DE893E00E94DE0361E084E00E943705EC
:1016100086EE91E00E94D90364E670E080E090E0FD
:101620000E945C030E948E0460E082E00E94370505
:1016300065ED71E08DE893E00E94DE0368EE73E0F3
:1016400080E090E00E945C0361E084E00E94370546
:1016500088EE91E00E94D90364E670E080E090E0BB
:101660000E945C030E948E0460E082E00E943705C5
:101670006AEE71E08DE893E00E94DE0368EE73E0AD
:1016800080E090E00E945C0368E270E080E090E01F
:101690000E945C030E948E0460E082E00E94370595
:1016A0008AEF91E00E94D90364EF71E080E090E05E
:1016B0000E945C0360E08CE00E94370585E092E0C8
:1016C0000E94D90364EF71E080E090E00E945C0327
:1016D00060E08DE00E94370585E092E00E94D9032A
:1016E00064EF71E080E090E00E945C0360E08EE0D7
:1016F0000E94370585E092E00E94D90360E971E01D
:1017000080E090E00E945C030E948E0460E084E030
:101710000E94370587E092E00E94D90368EB71E0F0
:1017200080E090E00E945C0368EE73E080E090E06F
:101730000E945C031092500210924F0280914F025F
:1017400090915002853B91050CF060C00E948C0086
:101750006FE070E080E090E00E945C031092520223
:10176000109251020E948E040E94490580914F02FE
:101770009091500205969093500280934F02DECFD5
:1017800064EF71E080E090E00E945C030E948E04B0
:1017900060E081E00E9437058FE092E00E94D9036B
:1017A00060E086E00E94370584E192E00E94D90360
:1017B00061E08FE00E9437056AE771E08DE893E011
:1017C0000E94DE0361E084E00E9437056EE172E072
:1017D0008DE893E00E94DE0361E08DE00E94370512
:1017E0006AE771E08DE893E00E94DE036AE272E04E
:1017F0008CE592E00E94DE0368EB7BE080E090E005
:101800000E945C030E948E040E94490510925202BD
:10181000109251029ECD617064CD052E97FB1EF48F
:1018200000940E94240C57FD07D00E943F0C07FC37
:1018300003D04EF40C94240C50954095309521958E
:101840003F4F4F4F5F4F08959095809570956195EC
:101850007F4F8F4F9F4F08950E94610CA59F900D61
:10186000B49F900DA49F800D911D11240895B7FF82
:101870000C942C0C0E942C0C821B930B0895A1E25B
:101880001A2EAA1BBB1BFD010DC0AA1FBB1FEE1FFA
:10189000FF1FA217B307E407F50720F0A21BB30B45
:1018A000E40BF50B661F771F881F991F1A9469F7C1
:1018B00060957095809590959B01AC01BD01CF011D
:1018C0000895A29FB001B39FC001A39F700D811D19
:1018D0001124911DB29F700D811D1124911D089539
:1018E000991B79E004C0991F961708F0961B881F72
:1018F0007A95C9F780950895EE0FFF1F0590F49132
:08190000E02D0994F894FFCFDB
:1019080004050600010203313233343536373839DD
:101918002A302300000000FA0199039B014702CCFA
:1019280001AA01BE01000000008E03920396030085
:101938000000005D059903C703C6030D0A002A4588
:101948004E5445522054484520434F44452A00549C
:101958004F204F50454E20444F4F52212100202008
:10196800202A417375746F73682A200020207E50E6
:10197800726573656E74737E202020002041726446
:1019880075696E6F206261736564202000202020D5
:10199800446F6F722D6C6F636B0050415353574FF8
:1019A80052443A0030313233004163636573732027
:1019B8004772616E7465640057454C434F4D45212D
:1019C800210047455420494E2057495448494E3A2A
:1019D8003A3A00350047455420494E205749544863
:1019E800494E3A0034003200310047455420494EF0
:1019F8002057495448494E3A3A0052452D4C4F43D6
:101A08004B494E47002E004C4F434B454421004361
:101A18004F444500494E434F5252454354004745B1
:101A280054204157415921212100434F4445204921
:101A38004E434F525245435420594F552041524529
:0E1A480020554E415554484F52495A454400CE
:00000001FF
